:100000000C94F1000C949A110C9473110C944C11F3
:100010000C9425110C9419010C9419010C94FE10E8
:100020000C9419010C9419010C94C1110C94301208
:100030000C9419010C9419010C9419010C941901D8
:100040000C9419010C9481150C9419010C9419014C
:100050000C9419010C9419010C9419010C94B4100E
:100060000C9419010C9419010C9419010C941901A8
:100070000C9419010C9419010C9419010C94190198
:100080000C9419010C9419010C9419010C94190188
:100090000C9462140C9419010C9419010C9419011C
:1000A0000C9419010C9419010C9419011F1C1F1EAA
:1000B0001F1E1F1F1E1F1E436F756C646E2774204A
:1000C00066696E642052544300436F756C646E27FA
:1000D000742066696E6420525443000706050401CB
:1000E00000080A0B0C0D09080B00020202000009AF
:1000F0000400000102020000052400100105240193
:1001000001010424020605240600010705810310ED
:10011000004009040100020A000000070502024035
:1001200000000705830240000004030904120100D7
:1001300002EF02014041234180000101020301411D
:10014000726475696E6F204C4C430041726475692E
:100150006E6F2059756E0000000000240027002AF1
:10016000002D00300000000000250028002B002E8C
:10017000003100000000002300260029002C002F81
:10018000000404040404030405020202020403023E
:10019000020202060606060606040402020204041F
:1001A0000408020110408040102040804080080276
:1001B00004018040201002011080102040402000E7
:1001C00000000200090F0000030401000C00000001
:1001D00000000000000000000000000000003D16CC
:1001E000531D11241FBECFEFDAE0DEBFCDBF13E0F9
:1001F000A0E0B1E0EEEBF0E402C005900D92A03F6C
:10020000B107D9F726E0A0EFB3E001C01D92AD34ED
:10021000B207E1F710E0C0EFD0E004C02197FE0183
:100220000E945A1ECF3ED107C9F70E9464170C9452
:1002300052200C940000FC0180919F04882311F14E
:100240003FB7F89482E08093E9002091F200822F7A
:1002500090E01816190614F481E090E0882339F034
:10026000289844E640939E044091F1004083222365
:1002700039F02091F200211103C02BE62093E80011
:100280003FBF08958FEF9FEF08952FB7F89483E055
:100290008093E9009091E800892F807295FF04C057
:1002A0009091F20080E4891B2FBF089580919604FD
:1002B00081110DC082E08093920484E080939304C6
:1002C000109295041092940481E08093960482E940
:1002D00094E0089581508F3008F047C0E82FF0E097
:1002E000EC58FE4F0C945A1E91019501830189012F
:1002F0008D01B501B501B50198019E01A201A601CC
:10030000AC01B501B001809180008F7780938000AF
:100310000895809180008F7DF9CF80918000877F44
:10032000F5CF84B58F7784BD089584B58F7DFBCFDD
:10033000809190008F778093900008958091900035
:100340008F7DF9CF80919000877FF5CF8091C0009D
:100350008F778093C00008958091C0008F7DF9CF82
:100360008091C200877F8093C2000895CF93DF936E
:10037000282F30E0F901E154FE4F8491F901E05655
:10038000FE4FD491F901EF57FE4FC491CC23A1F059
:1003900081110E946A01EC2FF0E0EE0FFF1FED5873
:1003A000FE4FA591B491EC91ED2381E090E009F42A
:1003B00080E0DF91CF91089580E090E0FACF1F9325
:1003C000CF93DF93282F30E0F901E154FE4F849161
:1003D000F901E056FE4FD491F901EF57FE4FC49159
:1003E000CC23A9F0162F81110E946A01EC2FF0E0B6
:1003F000EE0FFF1FEB59FE4FA591B4918FB7F89404
:10040000EC91111108C0D095DE23DC938FBFDF91F2
:10041000CF911F910895DE2BF8CFCF93DF9390E01B
:10042000FC01E056FE4F24918F579E4FFC018491B2
:100430008823D1F090E0880F991FFC01E95AFE4F04
:10044000A591B491FC01EB59FE4FC591D491611176
:100450000EC09FB7F8948C91E22FE0958E238C9379
:100460002881E223E8839FBFDF91CF9108958FB762
:10047000F894EC91E22BEC938FBFF6CF3FB7F89452
:1004800080918E0490918F04A0919004B09191047A
:1004900026B5A89B05C02F3F19F00196A11DB11DDF
:1004A0003FBFBA2FA92F982F8827BC01CD01620F1B
:1004B000711D811D911D42E0660F771F881F991FD6
:1004C0004A95D1F708958F929F92AF92BF92CF92A3
:1004D000DF92EF92FF924B015C010E943E026B01A2
:1004E0007C010E943E026C197D098E099F09683EBD
:1004F000734081059105A8F321E0821A9108A108B3
:10050000B10888EEC80E83E0D81EE11CF11C8114EE
:100510009104A104B10429F7FF90EF90DF90CF90F0
:10052000BF90AF909F908F9008952FB7F8946091EF
:100530008A0470918B0480918C0490918D042FBF5C
:10054000089508954091830450918404209181047A
:100550003091820442175307B4F49091E8009570EB
:10056000E1F39091E80092FD19C08093F100809131
:1005700083049091840401968F739927892B19F431
:100580008EEF8093E800809183049091840401961B
:10059000909384048093830481E0089580E008951B
:1005A000EF92FF920F931F93CF93DF93F82E192FA3
:1005B000E62E042F81E0860F880F0E94A20283E0BE
:1005C0000E94A202CF2DD12FEC0EFD2EF11CCE15D4
:1005D000DF05B9F007FF13C0FE0184910E94A2025B
:1005E000182F80E00E94A202812321968111EFCF73
:1005F000DF91CF911F910F91FF90EF900895888127
:10060000EDCF81E0F5CFDF92EF92FF920F931F9332
:10061000CF93DF93D82E8A01EB017B01E40EF51E08
:10062000CE15DF0559F0D7FE12C0FE0184910E945D
:10063000A20221968111F4CF0FEF1FEFC801DF91C5
:10064000CF911F910F91FF90EF90DF9008958881D7
:10065000EECF0F931F93CF93DF931F92CDB7DEB7EB
:1006600082E0898342E450E067EE70E080E80E9417
:1006700003030E945601DC0112960D911C91011595
:10068000110589F0D801ED91FC910280F381E02DF4
:10069000BE016F5F7F4FC801099597FD04C0F80147
:1006A00000851185ECCF89810F90DF91CF911F914B
:1006B0000F910895615030F02091F100FC012083EA
:1006C0000196F8CF289884E680939E040895AF920F
:1006D000BF92CF92DF92EF92FF920F931F93CF932F
:1006E000DF936C017B018B01040F151FEB015E0191
:1006F000AE18BF08C017D10759F06991D601ED9126
:10070000FC910190F081E02DC6010995892B79F7C4
:10071000C501DF91CF911F910F91FF90EF90DF9076
:10072000CF90BF90AF900895089508958F929F92B3
:10073000AF92BF92CF92DF92EF92FF920F931F93EF
:10074000CF93DF936C017B018A0180910B01882399
:1007500009F45CC080919F04882309F457C08091FC
:10076000870480FF05C08091E00082608093E000F4
:10077000E801B12C8AEFA82E93E0892E2AE3922E6D
:10078000209711F4BB20D9F10E94450181110AC0C4
:10079000AA94AA20D9F161E070E080E090E00E9484
:1007A0006302EECF8C171D0611F00CF08C2F9FB753
:1007B000F8948092E9002091E80025FD02C09FBFD7
:1007C000DFCF282F30E0C21BD30BF701815020F080
:1007D00041914093F100FACFE20EF31EBB2021F0CD
:1007E0009092E800B12CEBCF8091E80085FDE7CF37
:1007F0009092E800BB24B394209709F3F3CF5D985F
:1008000084E680938804101611063CF081E090E0A5
:10081000F6019383828310E000E0C801DF91CF915D
:100820001F910F91FF90EF90DF90CF90BF90AF900E
:100830009F908F900895CF93DF931F92CDB7DEB72F
:100840006983DC01ED91FC910280F381E02D41E0B0
:1008500050E0BE016F5F7F4F09950F90DF91CF9100
:1008600008950F931F93CF93DF938C01D0E0C0E0E6
:10087000F801EC0FFD1F6491662341F084E195E0DF
:100880000E941B04892B11F02196F2CFCE01DF913B
:10089000CF911F910F91089583E08093E90080919B
:1008A000F200882319F08AE38093E80008950E94FB
:1008B000450190E00895CF93DF931F92CDB7DEB747
:1008C000FC018485958597FD08C02FEF3FEF3587A4
:1008D00024870F90DF91CF910895CE0101960E9459
:1008E0001B01019719F4898190E0F3CF8FEF9FEFFF
:1008F000F0CF0F931F93CF93DF931F92CDB7DEB747
:100900008C01FC018485958597FF0BC0CE01019673
:100910000E941B01019771F4898190E0F80195878D
:100920008487F801848595850F90DF91CF911F9181
:100930000F9108958FEF9FEFF1CFFC01848595858E
:1009400097FD0BC09FB7F89482E08093E9008091F7
:10095000F2009FBF90E0019608959FB7F89482E05F
:100960008093E9008091F2009FBF90E0089520916C
:100970001D04260F3327331F21323105ECF420915B
:10098000EA04FC0190E080E0243069F082E0089500
:10099000A0911D042191AC0143505C4FA40FB52FD1
:1009A000B11D2C930196861798F380911D04680F52
:1009B00060931D0480E0089581E008951092EA0498
:1009C00081E08093E9041092C40461E082E00E9417
:1009D000DF0161E083E00E94DF01E9EBF0E080816C
:1009E0008E7F808380818D7F808388E48093B800B0
:1009F00085E48093BC000895CF93DF9391E09093BA
:100A0000FC038823B9F0C091B800D091BA0080915E
:100A1000BC008A7B8093BC0060E082E00E94DF0122
:100A200060E083E00E94DF010E94DE04D093BA0000
:100A3000C093B800DF91CF9108958F929F92AF92AB
:100A4000BF92CF92DF92EF92FF920F931F93CF93BB
:100A5000DF93D0911305D13208F0D7C0182FC09181
:100A600012050E943E026B017C018091EA04811113
:100A70006BC082E08093EA041093E9048FEF8093C7
:100A8000E8041092E704D093E604A2EFB4E0E6ECA9
:100A9000F4E080E0D81391C01092C5048091C504A1
:100AA000CC0FC82BC093C5048091C404813009F0D9
:100AB00088C01092C4040E943E026B017C018091A8
:100AC000C5048093BB008091EC049091ED04A0914B
:100AD000EE04B091EF04892B8A2B8B2BA1F00E949E
:100AE0003E020091EC041091ED042091EE0430914F
:100AF000EF046C197D098E099F090617170728074F
:100B0000390708F442C08091BC0083FDD8CF85EC42
:100B10008093BC000E943E026B017C018091EA043C
:100B2000823009F450C08091E8048F3F09F46FC00F
:100B30008091E804803209F46CC08091E80480332D
:100B400009F469C084E026C08091EC049091ED0422
:100B5000A091EE04B091EF04892B8A2B8B2B09F422
:100B600084CF0E943E028090EC049090ED04A0900F
:100B7000EE04B090EF046C197D098E099F0986166A
:100B80009706A806B90608F070CF8091EB040E9482
:100B9000FC0485E01092F104109213051092F00409
:100BA000DF91CF911F910F91FF90EF90DF90CF9049
:100BB000BF90AF909F908F9008959D9191938F5F7C
:100BC00069CF85EEA5CF8091EC049091ED04A091C2
:100BD000EE04B091EF04892B8A2B8B2B09F49ECF66
:100BE0000E943E020091EC041091ED042091EE046D
:100BF0003091EF046C197D098E099F0906171707BC
:100C00002807390708F08ACFC0CF81E0C3CF80E042
:100C1000C1CF82E0BFCF83E0BDCFCF93DF93EC01A4
:100C20008B818823A1F0888191E09093F0048093D8
:100C300012051092F1041092130581E00E941D0527
:100C400091E0811190E0892FDF91CF91089510926A
:100C5000A3041092A2041092F104109213050E94B2
:100C6000DE0484E993E0909343048093420485E991
:100C700093E0909341048093400481E08B83CE0104
:100C80000E940D06982F8111CECFDDCF8F929F92BB
:100C9000AF92BF92FF920F931F93CF93DF93FC010C
:100CA000F0808BE08F1508F44AC0828108E512E0DD
:100CB000081B110987FD1395000F111F000F111F4D
:100CC0008181C8E8D0E0C81BD10987FDD395CC0F3E
:100CD000DD1FCC0FDD1F4E010D2E000CAA08BB0836
:100CE0009801012E000C440B550B281939094A09AB
:100CF0005B09DB010E94B61D24EB30E040E050E0D0
:100D00000E948C1D820E931EA41EB51E8C169D067D
:100D10002CF0E801801691060CF4E4012297CC0F28
:100D2000DD1F2FB7F8948F2D90E0FC01EE0FFF1F11
:100D3000E80FF91FE059FA4FD283C1832FBFDF912B
:100D4000CF911F910F91FF90BF90AF909F908F9088
:100D500008951F93CF93DF93EC01162F88818C3079
:100D600008F04EC061E0812F0E940D028881282F7B
:100D700030E0F901EE0FFF1FE20FF31FE059FA4FC9
:100D80001F736081607C612B608319821A822CE062
:100D9000622F0E94261E829FB001112430E020E0C5
:100DA000AB01420F531FFA01EE0FFF1FE40FF51FB7
:100DB000E059FA4F908196FD16C02F5F3F4F2C30BF
:100DC000310571F781110FC01092800082E080938D
:100DD00081001092850010928400B19A80916F007A
:100DE000826080936F00E8818E2F90E0FC01EE0F0F
:100DF000FF1FE80FF91FE059FA4F8081806480835C
:100E00008881DF91CF911F91089508950895E09111
:100E1000A3048091A204E81730F4F0E0EC55FB4FF6
:100E2000808190E008958FEF9FEF08959091A30443
:100E30008091A2042FEF3FEF981748F4E92FF0E0DC
:100E4000EC55FB4F208130E09F5F9093A304C901D4
:100E500008958091A2049091A304891B990B089591
:100E6000CF92DF92EF92FF920F931F93CF93DF9376
:100E70007C01CB018A012091F004222389F0EB014F
:100E80006B01C40ED51ECC15DD0569F06991D70143
:100E9000ED91FC910190F081E02DC7010995F3CF10
:100EA000642F0E94B704C801DF91CF911F910F9169
:100EB000FF90EF90DF90CF900895CF93DF931F9234
:100EC000CDB7DEB769832091F0042223F9F0209199
:100ED0001305203258F021E030E0FC0133832283F7
:100EE00090E080E00F90DF91CF9108958091F10420
:100EF000E82FF0E0EE50FB4F998190838F5F809355
:100F0000F1048093130581E090E0ECCF61E0CE0125
:100F100001960E94B704F7CF90E080E00895909189
:100F20005904992391F12091550494E0299F90014F
:100F30001124F901EF58FB4F408151818823A1F022
:100F40004731510524F44F5F5F4F51834083F901CE
:100F5000EF58FB4F8081918148970CF477C087E16F
:100F600090E09183808308951416150624F441506F
:100F7000510951834083F901EF58FB4F80819181E2
:100F800097FF64C0118210820895909158049923AC
:100F900021F190914404882389F09B3308F056C0D6
:100FA000E091550484E0E89FF0011124EF58FB4FD5
:100FB000828193810196938382830895992309F412
:100FC00045C0E091550494E0E99FF0011124EF58E9
:100FD000FB4F828193810197EECF90915404992326
:100FE00041F14091550450E0440F551FFA01E85972
:100FF000FB4F208131813093FA032093F90388233A
:1010000091F02033E5E73E0734F4265F3F4F3093FD
:10101000FA032093F90348595B4F8091F9039091AB
:10102000FA03FA019ECF2A303105ACF32A50310978
:10103000EECF80915304882349F0E0915504F0E00D
:10104000E259FB4F808191E0892780830895809148
:101050005D0490915E046AE070E00E94461E61505B
:101060006093550470E070935E0460935D04109289
:101070005604089580915D0490915E048093550418
:1010800001964AE0489F9001499F300D112430930A
:101090005E0420935D04089580915D0490915E0448
:1010A0006AE070E00E94461E6093560461506093AF
:1010B000550408958F929F92AF92BF92CF92DF9284
:1010C000EF92FF92CF93880F991FFC01E859FB4FD5
:1010D000E080F180F092FA03E092F9030E94950219
:1010E0004B015C018092F5039092F603A092F70306
:1010F000B092F80364EB70E08EE296E00E94460640
:101100002AE02E9DC0012F9D900D1124092E000C68
:10111000AA0BBB0B6C017D01C80CD91CEA1CFB1C83
:10112000C1E00E9495026C157D058E059F0588F52E
:101130000E949502AB01BC018091F1039091F203F2
:10114000A091F303B091F4038C509E4FAF4FBF4F6B
:1011500084179507A607B70778F48091F0038C27CA
:101160008093F0030E9495026093F1037093F20361
:101170008093F3039093F4038091F00364EB70E0A9
:10118000811102C070E060E08BE296E00E944606AA
:10119000C8CF70E060E08EE296E00E94460681E0F3
:1011A00080936704CF91FF90EF90DF90CF90BF9036
:1011B000AF909F908F9008951F93CF93DF93DC01A2
:1011C0001496ED91FC91E417F50710F490E01FC020
:1011D000122FEA01FC0181819281208131E030935C
:1011E000F004209312051092F10410921305DC0113
:1011F000ED91FC910280F381E02D0995C817D90784
:1012000029F7812F0E941D0591E08111DFCF892FE1
:10121000DF91CF911F9108952F923F924F925F924D
:101220006F927F928F929F92AF92BF92CF92DF92F6
:10123000EF92FF920F931F93CF93DF935C011B01FB
:101240006A01F12CE12CD50114968D919C918601B7
:101250000E191F098017910708F48C01F501D08140
:101260000E943E022B013C018091EA04811172C070
:10127000C02F013208F0C0E2F1E0F093EA0421E06F
:10128000C601801B910BE816F90608F420E02093B4
:10129000E9048FEF8093E8041092E7048C0F8093A9
:1012A000E604A1E0A093C5048091C504DD0FD82B0E
:1012B000D093C5048091C404813009F090C010928D
:1012C000C4040E943E022B013C018091C50480931E
:1012D000BB008091EC049091ED04A091EE04B091DC
:1012E000EF04892B8A2B8B2BA1F00E943E022091C8
:1012F000EC043091ED044091EE045091EF04641938
:10130000750986099709261737074807590708F40A
:1013100042C08091BC0083FDD8CFB5ECB093BC0037
:101320000E943E022B013C018091EA04813009F4C5
:101330005AC08091E7048C1710F4C091E704A6EC22
:10134000B4E0E4EAF4E080E08C1751F19D919193D0
:101350008F5FFACF8091EC049091ED04A091EE04A0
:10136000B091EF04892B8A2B8B2B09F47DCF0E943F
:101370003E022091EC043091ED044091EE04509136
:10138000EF04641975098609970926173707480776
:10139000590708F069CF8091EB040E94FC04C0E07B
:1013A0001092A304C093A204C017110609F057C0FD
:1013B00041018E0C9F1CE401CE0188199909801708
:1013C000910798F5D50111968D919C91DC01ED91D5
:1013D000FC910284F385E02D09958993EDCFE5EE2C
:1013E000E093BC009DCF8091EC049091ED04A0911E
:1013F000EE04B091EF04892B8A2B8B2B09F494CF48
:101400000E943E022091EC043091ED044091EE04E4
:101410005091EF0464197509860997092617370753
:101420004807590708F080CFB6CFE00EF11EEC1444
:10143000FD0408F408CF81E0DF91CF911F910F9157
:10144000FF90EF90DF90CF90BF90AF909F908F90E4
:101450007F906F905F904F903F902F90089580E025
:10146000EBCFCF93DF9300D0CDB7DEB78FE08A8389
:1014700021E041E050E0BE016E5F7F4F8091A0040B
:101480009091A1040E94DC0841E050E0BE016F5F32
:101490007F4F8091A0049091A1040E940C09898142
:1014A0000F900F90DF91CF910895EF92FF920F93DD
:1014B0001F93CF93DF9300D000D000D01F92CDB701
:1014C000DEB78C011982E090A004F090A10420E026
:1014D00041E050E0BE016F5F7F4FC7010E94DC0812
:1014E000882341F047E050E0BE016F5F7F4FC701A6
:1014F0000E940C09E981EF77FA81FB805D814E81C2
:101500004F778F81282F30E094E0359527959A9575
:10151000E1F7922F990F990F291B220F280FD8015D
:101520002C93842F90E024E0959587952A95E1F7F8
:10153000982F990F990F891B880F840F11968C9300
:101540001197652F70E034E0759567953A95E1F74E
:10155000862F880F880F681B660F650F12966C9395
:1015600012974F2D50E064E0559547956A95E1F745
:10157000842F880F880F481B440F4F0D13964C93F0
:1015800013972F2F30E074E0359527957A95E1F782
:10159000822F880F880F281B220F2F0F14962C9351
:1015A00014978E2F90E0F4E095958795FA95E1F7E2
:1015B000982F990F990F891B880F8E0F15968C9372
:1015C000C80127960FB6F894DEBF0FBECDBFDF91DE
:1015D000CF911F910F91FF90EF900895CF93DF93DC
:1015E000EC0160E08E810E94DF0161E08E810E944B
:1015F000DF0160E08E810E94DF018BE891E00197BE
:10160000F1F7DF91CF910895CF92DF92EF92FF92A1
:101610000F931F93CF93DF936C017C0187E0E80E5B
:10162000F11CD0E0C0E0062F10E0B8010C2E02C083
:10163000759567950A94E2F76170F70181917F01D2
:101640000E94DF012196C430D10579F7C601DF91F0
:10165000CF911F910F91FF90EF90DF90CF900C945E
:10166000EE0ACF92DF92EF92FF920F931F93CF93E8
:10167000DF93EC01F62E642F8C810E94DF018D81B7
:101680008F3F19F060E00E94DF010F2D10E08F8581
:1016900084FF25C06E0187E0C80ED11CF12CE12C1F
:1016A000B8010E2C02C0759567950A94E2F7617037
:1016B000F60181916F010E94DF01FFEFEF1AFF0A2F
:1016C00088E0E816F10461F7CE01DF91CF911F9118
:1016D0000F91FF90EF90DF90CF900C94EE0AB8013D
:1016E00084E0759567958A95E1F7CE010E94040B19
:1016F0006F2DCE01DF91CF911F910F91FF90EF9051
:10170000DF90CF900C94040B40E0682F81E396E0CB
:101710000C94310BCF93DF93823029F490914006E3
:10172000986090934006809344061092450680E4AA
:101730008093460680E18093470680E580934806C3
:1017400061E0809135060E940D02809136068F3F40
:1017500019F061E00E940D0261E0809137060E945D
:101760000D02C1E3D6E09E01215336408091400630
:1017700084FD0BC084E090E021962817390744F4DB
:1017800061E08E810E940D02EECF88E090E0F4CF00
:101790008BE39DE00197F1F760E0809135060E94B0
:1017A000DF0160E0809137060E94DF0180913606FC
:1017B0008F3F19F060E00E94DF018091400684FDB8
:1017C00039C063E081E396E00E94040BCBE4D6E4E9
:1017D000CE010197F1F763E081E396E00E94040BEC
:1017E0002197F1F763E081E396E00E94040B83E523
:1017F00092E00197F1F762E081E396E00E94040B2A
:101800008091400680620E94840B84E080934106B0
:101810008CE00E94840B81E00E94840B8BE39FE1AB
:101820000197F1F782E08093420686E0DF91CF9145
:101830000C94840B80620E94840B8BE496E40197E5
:10184000F1F78091400680620E94840B83E592E06C
:101850000197F1F78091400680620E94840BD0CFFF
:1018600090914406691710F06FEF690FE62FF0E0D2
:10187000EF5CF94F9489890F80680C94840B41E0E8
:101880000E94310B81E090E00895FC0180819181FC
:10189000009711F00C94FC1E0895FB0101900020AC
:1018A000E9F73197AF01461B570BDC01ED91FC9135
:1018B0000280F381E02D09946BE571E084E195E00D
:1018C0000C944D0C8F929F92AF92BF92EF92FF9229
:1018D0000F931F93CF93DF93CDB7DEB7A1970FB6CA
:1018E000F894DEBF0FBECDBF7C01FA01CB0119A277
:1018F000223008F42AE08E010F5D1F4F822E912CBA
:10190000B12CA12CBF01A50194010E94F51DF90184
:10191000CA016A300CF5605DD8016E938D01232BEE
:10192000242B252B79F790E080E0109721F0BD0162
:10193000C7010E944D0CA1960FB6F894DEBF0FBEF2
:10194000CDBFDF91CF911F910F91FF90EF90BF908E
:10195000AF909F908F900895695CDECFCF92DF9219
:10196000EF92FF920F931F93CF93DF936B01770F4B
:10197000EE08FF08F7FE1FC0EC01E881F981019035
:10198000F081E02D6DE209958C0144275527BA01BD
:101990004C195D096E097F092AE0CE010E94620C94
:1019A000800F911FDF91CF911F910F91FF90EF90CA
:1019B000DF90CF9008952AE0B701A601DF91CF9183
:1019C0001F910F91FF90EF90DF90CF900C94620CDD
:1019D000CF93DF93BC0184E195E00E94AE0CEC0153
:1019E0000E945C0C8C0F9D1FDF91CF910895482FB2
:1019F00050E070E060E02AE081E396E00C94620C35
:101A0000CF93DF93BC0184E195E00E944D0CEC0183
:101A10000E945C0C8C0F9D1FDF91CF9108958EE585
:101A200091E00E94000D80915D0490915E04E09130
:101A30005604F0E0EE0FFF1FE45EFE4F20812817F2
:101A400019064CF4019790935E0480935D0487E639
:101A500091E00E94000D68EC70E080E090E00C9452
:101A6000630283E791E00E94000D80915D049091F4
:101A70005E04E0915604F0E0EE0FFF1FE45EFE4FBF
:101A800021812817190651F04CF0019690935E04BD
:101A900080935D048BE791E00E94000D68EC70E09C
:101AA00080E090E00C9463020C944D0C0F931F9314
:101AB000CF93DF9382E00E94B6018C0183E00E9405
:101AC000B601EC0186E891E00E94000D8091570478
:101AD000811128C080915C04811124C00C171D075E
:101AE000F1F40E94310D6EE871E084E195E00E940E
:101AF000540D80915D0490915E040E94E80C65EAAB
:101B000071E084E195E00E94540D0E945C0C80EB32
:101B100091E0DF91CF911F910F910C94000D0E94E5
:101B20000F0DE1CF81E00C171D0709F080E00E9446
:101B30008F07D9CF81E0809357048093530460E0EE
:101B40000E94300C67ED71E081E396E00E94540D35
:101B500061E080E00E94300CE0915504F0E0E25931
:101B6000FB4F608170E081E396E00C94AE0C81E065
:101B7000809357048093580460E00E94300C62EE1A
:101B800071E081E396E00E94540D61E080E00E94E4
:101B9000300C65EF71E081E396E00E94540DE09116
:101BA000550484E0E89FF0011124EF58FB4F608159
:101BB000718181E396E00E94AE0C6AE072E081E3FD
:101BC00096E00E94540DE091550484E0E89FF001F6
:101BD0001124EF58FB4F6281738181E396E00C94EE
:101BE000AE0C81E0809357048093590410925804FE
:101BF00060E00E94300C6BEF71E081E396E00E94A0
:101C0000540D61E080E00E94300C65EF71E081E3EB
:101C100096E00E94540DE091550484E0E89FF001A5
:101C20001124EF58FB4F6081718181E396E00E949F
:101C3000AE0C6AE072E081E396E00E94540DE09100
:101C4000550484E0E89FF0011124EF58FB4F6281B6
:101C5000738181E396E00C94AE0C81E080935C0488
:101C6000809357048093590460E00E94300C6CE02C
:101C700072E081E396E00E94540D61E080E00E94F2
:101C8000300C809148040C94F70C8A309105E0F4F4
:101C9000109256048130910571F02CF46DE172E0E0
:101CA000892B59F008958230910559F068E372E06C
:101CB000039719F0089566E272E081E396E00C94D0
:101CC000540D6FE272E0F9CF9C012A5031092A309D
:101CD000310508F064C021E0209356048C30910552
:101CE000E1F134F48A30910551F00B9729F1089510
:101CF0008D309105E1F10E9709F44AC0089566E42C
:101D000072E081E396E00E94540D6091710470913D
:101D1000720481E396E00E94AE0C6AE072E081E317
:101D200096E00E94540D609173047091740481E3F5
:101D300096E00E94AE0C83C063E572E081E396E01A
:101D40000E94540D609168047091690481E396E0EB
:101D50000E94AE0C61EA72E0B0CF64E672E081E30B
:101D600096E00E94540D60916E0470E0EFCF6FE634
:101D700072E081E396E00E94540D609168047091D6
:101D8000690481E396E00E94AE0C60EA72E095CFB0
:101D900064E772E081E396E00E94540DF6CF9C0167
:101DA000245131092A30310508F04CC022E020933B
:101DB00056048631910541F144F48431910559F07E
:101DC00063E572E0459761F108958731910531F13E
:101DD000489779F1089566E472E081E396E00E9405
:101DE000540D609175047091760481E396E00E9431
:101DF000AE0C6AE072E081E396E00E94540D6091BF
:101E000077047091780493CF64E672E081E396E002
:101E10000E94540D60916F0470E089CF6FE672E00C
:101E200081E396E00E94540D60916A0470916B0406
:101E30007ECF64E772E081E396E00E94540D63EA8E
:101E400072E03BCF9C012E5131092A30310508F058
:101E500042C023E0209356048032910541F144F4BE
:101E60008E31910559F06BE772E04F9759F1089563
:101E70008132910529F18297E1F2089566E472E0DA
:101E800081E396E00E94540D6091790470917A0488
:101E900081E396E00E94AE0C6AE072E081E396E096
:101EA0000E94540D60917B0470917C0440CF64E6E5
:101EB00072E081E396E00E94540D60917004ACCF13
:101EC0006FE672E081E396E00E94540D60916C042D
:101ED00070916D042CCF089560E080E00E94300C7A
:101EE0006DE872E081E396E00E94540D80915D04FC
:101EF00090915E040E94450E6DE972E081E396E0E8
:101F00000E94540D61E080E00E94300C20915D043D
:101F100030915E04C9016AE070E00E94461EFB0138
:101F2000FF27EE0FFF1FE45EFE4F8181821713062D
:101F300009F0ACF52330310561F5809148040E9429
:101F4000F70C6FE872E081E396E00E94540D8091F7
:101F500046040E94F70C62E972E081E396E00E9479
:101F6000540D809147040E94F70C64E972E081E30C
:101F700096E00E94540D809145040E94F70C6AE09F
:101F800072E081E396E00E94540D809144040E9427
:101F9000F70C66E972E081E396E00C94540DC901F8
:101FA00001960E94450EF5CF81E0809357048093FF
:101FB000540460E00E94300C6AEA72E081E396E02B
:101FC0000E94540D61E080E00E94300CE0915504C5
:101FD000F0E0EE0FFF1FE859FB4F6081718181E354
:101FE00096E00C94AE0CEF92FF920F931F93CF9359
:101FF000DF93EC017B01198218821B821A821D82F9
:102000001C82FB0101900020E9F731978F01061B2C
:10201000170BB8016F5F7F4F90E080E00E94851F33
:102020000097B9F0998388831B830A832C813D81B3
:10203000232B11F4FC0110821D830C83B7018881CE
:102040009981DF91CF911F910F91FF90EF900C94A8
:102050004B2088819981009711F00E94FC1E198203
:1020600018821D821C821B821A82DF91CF911F91E0
:102070000F91FF90EF90089585ED8093BC008091C3
:10208000EC049091ED04A091EE04B091EF0407965A
:10209000A11DB11D23E0B695A795979587952A9523
:1020A000D1F72091BC0024FD03C01092EA040895EA
:1020B0004091EC045091ED046091EE047091EF04B6
:1020C000452B462B472B69F30097A105B10541F03D
:1020D00025E32A95F1F700000197A109B109E1CFA5
:1020E0008091EB040C94FC04FF920F931F93CF9309
:1020F000DF93EC01F62E08811981C8010E94761D3C
:10210000F81621F06F2DC8010E947E1DCE01DF91CF
:10211000CF911F910F91FF900895EF92FF920F932F
:102120001F93CF93DF9300D0CDB7DEB78C017B0137
:102130009A838983FB016081CE0101960E9474100D
:102140000F5F1F4F1A830983F7016181CE0101964A
:102150000E947410C7010F900F90DF91CF911F91D3
:102160000F91FF90EF9008951F920F920FB60F926C
:1021700011242F933F938F939F93AF93BF9380919D
:102180008A0490918B04A0918C04B0918D043091BD
:10219000890423E0230F2D3758F50196A11DB11DA9
:1021A0002093890480938A0490938B04A0938C04D9
:1021B000B0938D0480918E0490918F04A09190042F
:1021C000B09191040196A11DB11D80938E0490934E
:1021D0008F04A0939004B0939104BF91AF919F910D
:1021E0008F913F912F910F900FBE0F901F901895D8
:1021F00026E8230F0296A11DB11DD2CF1F920F9288
:102200000FB60F9211242F933F934F935F936F93C9
:102210007F938F939F93AF93BF93EF93FF93E0913F
:102220001401F09115010995FF91EF91BF91AF91C4
:102230009F918F917F916F915F914F913F912F91DE
:102240000F900FBE0F901F9018951F920F920FB610
:102250000F9211242F933F934F935F936F937F932C
:102260008F939F93AF93BF93EF93FF93E0911201EE
:10227000F09113010995FF91EF91BF91AF919F915B
:102280008F917F916F915F914F913F912F910F901F
:102290000FBE0F901F9018951F920F920FB60F92BE
:1022A00011242F933F934F935F936F937F938F935B
:1022B0009F93AF93BF93EF93FF93E0911001F09141
:1022C00011010995FF91EF91BF91AF919F918F916E
:1022D0007F916F915F914F913F912F910F900FBE22
:1022E0000F901F9018951F920F920FB60F92112406
:1022F0002F933F934F935F936F937F938F939F930E
:10230000AF93BF93EF93FF93E0910E01F0910F0114
:102310000995FF91EF91BF91AF919F918F917F911F
:102320006F915F914F913F912F910F900FBE0F9042
:102330001F9018951F920F920FB60F9211242F9392
:102340003F934F935F936F937F938F939F93AF933D
:10235000BF93EF93FF93E0910C01F0910D0109956C
:10236000FF91EF91BF91AF919F918F917F916F916D
:102370005F914F913F912F910F900FBE0F901F9043
:1023800018951F920F920FB60F9211248F939F935F
:102390008091E1009091E100937F9093E10083FFB1
:1023A0000FC01092E90091E09093EB001092EC00C6
:1023B00092E39093ED0010929F0498E09093F000C8
:1023C00082FF22C093E09093E9009091F20099235C
:1023D00019F09AE39093E80090918804992341F0D2
:1023E00090918804915090938804911101C05D9A56
:1023F00090919E04992341F090919E049150909366
:102400009E04911101C0289A84FF18C08091E200B7
:102410008E7E81608093E2008091E1008F7E8093C8
:10242000E100809187048E7E8061809387049F9174
:102430008F910F900FBE0F901F90189580FFF7CFD0
:102440008091E2008E7E80618093E2008091E100C5
:102450008E7E8093E100809187048E7E8160E5CF3F
:102460001F920F920FB60F921124CF92DF92EF922C
:10247000FF920F931F932F933F934F935F936F930D
:102480007F938F939F93AF93BF93EF93FF93CF93DC
:10249000DF93CDB7DEB76C97DEBFCDBF1092E900FA
:1024A0008091E80083FF25C068E0CE0145960E9438
:1024B0005A0382EF8093E8008D8987FF39C090919D
:1024C000E80090FFFCCF982F907609F034C19E89E8
:1024D0004F89588D2F89F88C911131C0803861F562
:1024E000809186048093F1001092F1008EEF80932A
:1024F000E8006C960FB6F894DEBF0FBECDBFDF913B
:10250000CF91FF91EF91BF91AF919F918F917F916B
:102510006F915F914F913F912F911F910F91FF907C
:10252000EF90DF90CF900F900FBE0F901F901895F7
:102530009EEF9093E800C7CF1092F100D5CF913075
:1025400059F48111D3CF4130510581F68091860431
:102550008D7F80938604CACF933049F48111C6CF12
:102560004130510519F6809186048260F2CF953092
:1025700041F48091E80080FFFCCF20682093E300C5
:10258000B5CF963009F0A9C00B8D1C8D22E01092BA
:10259000E9001092840410928304F2122EC010926B
:1025A0008204109281040E9429031F8299E099837A
:1025B000FA8291E09E8390EA98879AEF998720911A
:1025C000830430918404275F3F4F3C832B838D83AA
:1025D0001092E900109284041092830410938204F4
:1025E0000093810449E050E0BE016F5F7F4F80E0BF
:1025F0000E9403030E94290379CF10938204009361
:1026000081040E945601DC0112960D911C91011566
:10261000110509F451C1D801ED91FC910480F581B7
:10262000E02DBE016B5E7F4FC8010995009709F050
:102630003EC1F80100851185EACFF3E0FF120EC01C
:102640008F89882309F440C0823061F440E86BE050
:102650008BE491E00E94D002811148CF81E2809307
:10266000EB0047CF813029F440E86BE08FE391E045
:10267000F1CF833099F70E945601DC011296ED905C
:10268000FC908E010F5F1F4F6801E114F10479F097
:10269000D701ED91FC910680F781E02DB801C701CB
:1026A0000995080F111DF701E084F184EECFD801E0
:1026B0001C92F60101900020E9F73197BF016C19D7
:1026C0007D0940E0C601C6CF69E271E0FB0144919B
:1026D00050E080E80E94030309CF973009F4BECF91
:1026E000983021F481E08093F10000CF993009F017
:1026F000FDCE837009F0B2CFE5E2F1E081E031E098
:1027000096E32191222371F08093E9003093EB004E
:10271000DF0111972C912093EC009093ED008F5FD7
:10272000873079F78EE78093EA001092EA008F896C
:1027300080939F04DBCE8B8D9C8D1092E9001092CC
:102740008404109283049093820480938104898D81
:10275000811192C08E899D89913A49F4813209F0A4
:102760007DCF47E050E064E071E080E0B3CF91328C
:1027700009F074CF833269F48F89988DB0E0A0E0BE
:102780008093000190930101A0930201B093030193
:10279000ADCE803269F48091E80082FFFCCF67E023
:1027A00084E091E00E945A038BEF8093E8009ECE74
:1027B000823209F09BCE8F8980930B01EEEFFFE709
:1027C000859194918B3F9C4D51F1E0E0F8E0809130
:1027D000040190910501A0910601B0910701803B91
:1027E0009440A105B105F1F480910B0180FD1AC060
:1027F000EE3F8AE0F80789F587E797E791838083C2
:10280000809160008093850488E19BE00FB6F89486
:10281000A895809360000FBE9093600067CEEEEFA6
:10282000FAE0D5CF808191818737974709F05ECE56
:10283000A8958091600088618093600080918504F4
:1028400080936000EE3F2AE0F20789F08091FE0A53
:102850009091FF0A9183808349CE8081918187374F
:10286000980751F29093FF0A8093FE0AC5CF109209
:10287000FF0A1092FE0A3ACE0E945601DC0112961F
:102880000D911C910115110509F4E8CED801ED91C7
:10289000FC910190F081E02DBE016B5E7F4FC8017D
:1028A0000995811123CEF80100851185EBCF18160B
:1028B00019060CF41BCED2CEF1E0FF12BECE6DE2B3
:1028C00071E004CF1F920F920FB60F9211242F9335
:1028D0003F934F935F936F937F938F939F93AF93A8
:1028E000BF93EF93FF938091B900887F803609F4FE
:1028F0004AC0F0F5883209F4A7C018F5803109F410
:102900009BC0B8F4882309F4F9C0883009F494C056
:10291000FF91EF91BF91AF919F918F917F916F91B7
:102920005F914F913F912F910F900FBE0F901F908D
:102930001895883109F488C0803251F78093E804F3
:1029400014C0803409F49DC040F48033B9F3883357
:10295000F9F68093E80485ECB0C0803509F485C0B1
:10296000883509F496C0883499F60E943C10D0CF7F
:10297000883909F48CC038F5883729F050F4883646
:1029800011F0803729F683E08093EA0410923F0427
:1029900057C0883809F47BC0803919F0803809F0B5
:1029A000B7CF80913F04803208F071C0E0913F04BE
:1029B00081E08E0F80933F048091BB00F0E0E15EE8
:1029C000FB4F80833DC0803B39F0E0F4803A09F44E
:1029D00079C0883A09F09CCF84E08093EA04109291
:1029E0001E0410921D04E0914204F09143040995E5
:1029F00080911D0481110FC081E080931D0410920D
:102A0000FD0309C0803C09F4A6CF883C09F4A3CF9C
:102A1000883B09F07DCFE0911E0481E08E0F80930A
:102A20001E04F0E0E350FC4F80818093BB00909146
:102A30001E0480911D0429C08091C5048093BB00B1
:102A400085EC8093BC0064CF9091E7048091E6040C
:102A5000981758F5E091E70481E08E0F8093E70422
:102A6000F0E0EA53FB4F8081E9CFE091E70481E099
:102A70008E0F8093E7048091BB00F0E0EA53FB4F98
:102A800080839091E7048091E6049817C8F285E866
:102A9000D8CFE091E70481E08E0F8093E704809126
:102AA000BB00F0E0EA53FB4F80838091E904811181
:102AB0005CCF81E08093C40484EA8093BC001092D0
:102AC000EA0426CF85EC8093BC001092EA04809142
:102AD0003F04803230F4E0913F04F0E0E15EFB4FD0
:102AE000108260913F0470E0E0914004F091410455
:102AF0008FE194E0099510923F040ACF1092E80408
:102B000034CF1F920F920FB60F9211242F933F9341
:102B10004F935F936F937F938F939F93AF93BF93E5
:102B2000CF93DF93EF93FF938091FB03C0919405C4
:102B3000D0E087FF24C0109285001092840080911D
:102B4000FB038F5F8093FB038091FB03082E000C37
:102B5000990B8C179D0724F48091FB038C30C4F1F2
:102B60008091840090918500049680349C4908F4FB
:102B70007AC08091840090918500049676C08091FF
:102B8000FB03082E000C990B8C179D07C4F6E091EF
:102B9000FB038E2FEE0F990BFC01EE0FFF1FE80FCA
:102BA000F91FE059FA4F808186FFC9CFE091FB03FE
:102BB0008E2FEE0F990BFC01EE0FFF1FE80FF91F90
:102BC000E059FA4F808160E08F730E94DF01B7CF38
:102BD0002091840030918500E091FB038E2FEE0F51
:102BE000990BFC01EE0FFF1FE80FF91FE059FA4F98
:102BF00081819281820F931F909389008093880036
:102C0000E091FB038E2FEE0F990BFC01EE0FFF1FDF
:102C1000E80FF91FE059FA4F808186FF11C0E0915B
:102C2000FB038E2FEE0F990BFC01EE0FFF1FE80F39
:102C3000F91FE059FA4F808161E08F730E94DF0134
:102C4000FF91EF91DF91CF91BF91AF919F918F91C4
:102C50007F916F915F914F913F912F910F900FBE98
:102C60000F901F90189580E49CE9909389008093C1
:102C700088008FEF8093FB03E3CFCF93109217056B
:102C80001092160588EE93E0A0E0B0E0809318055E
:102C900090931905A0931A05B0931B052FE231E01C
:102CA00030931505209314052FEF3FEF3093210546
:102CB00020932005109267051092660580936805A1
:102CC00090936905A0936A05B0936B0581E491E048
:102CD0009093650580936405109234061092330634
:102CE00083E591E0909332068093310688E08093EB
:102CF0003506CFEFC093360689E08093370684E02F
:102D00008093380685E08093390686E080933A0602
:102D100087E080933B0610923C0610923D0610928D
:102D20003E0610923F061092400681E00E948A0BF8
:102D3000809194058C3008F0C0C091E0980F90937A
:102D4000940580932E0690E0FC01EE0FFF1FE80F24
:102D5000F91FE059FA4F88EB9BE0928381838091C1
:102D600094058C3008F0ACC091E0980F90939405D6
:102D700080932B0690E0FC01EE0FFF1FE80FF91F78
:102D8000E059FA4F88EB9BE09283818364EB72E019
:102D900087E096E00E94F30F6BEB72E08DE096E027
:102DA0000E94F30F65EC72E083E196E00E94F30F5E
:102DB0006BEC72E089E196E00E94F30F62ED72E045
:102DC0008FE196E00E94F30F6AED72E085E296E0F3
:102DD0000E94F30F6FED72E08DED95E00E94F30F0E
:102DE00067EE72E083EE95E00E94F30F6DEE72E005
:102DF00089EE95E00E94F30F64EF72E08FEE95E0AC
:102E00000E94F30F6EEF72E085EF95E00E94F30FE2
:102E100065E073E08BEF95E00E94F30F6DE073E0E7
:102E200081E096E00E94F30F64E173E085E995E0AC
:102E30000E94F30F6AE173E08BE995E00E94F30FC3
:102E400062E273E081EA95E00E94F30F68E273E0CA
:102E500087EA95E00E94F30F6EE273E08DEA95E059
:102E60000E94F30F63E373E083EB95E00E94F30F9E
:102E700069E373E089EB95E00E94F30F6FE373E081
:102E80008FEB95E00E94F30F66E473E085EC95E02C
:102E90000E94F30F61E573E08BEC95E00E94F30F65
:102EA00069E573E081ED95E00E94F30F63E673E05E
:102EB00087ED95E0CF910C94F30FC0932E064FCF82
:102EC0008FEF80932B0662CFCF93DF93CDB7DEB722
:102ED00060970FB6F894DEBF0FBECDBF789484B56F
:102EE000826084BD84B5816084BD85B5826085BD06
:102EF00085B5816085BD80916E00816080936E0094
:102F00001092810080918100826080938100809185
:102F10008100816080938100809180008160809336
:102F20008000809191008260809391008091910057
:102F300081608093910080919000816080939000E7
:102F40008091C10084608093C1008091C100826043
:102F50008093C1008091C10081608093C100809105
:102F6000C30081608093C3008091C0008260809321
:102F7000C0008091C20081608093C20080917A007D
:102F8000846080937A0080917A00826080937A00D6
:102F900080917A00816080937A0080917A008068C5
:102FA00080937A0010929F041092860410928704F6
:102FB0008091D70081608093D70080EA8093D80009
:102FC00089B5806189BD89B5826089BD09B400FE7B
:102FD000FDCF61E070E080E090E00E9463028091AC
:102FE000D8008F7C80618093D8008091E000807F42
:102FF0008093E0008091E1008E7E8093E1008DE07F
:103000008093E200559A209A82E00E948A0B60E049
:1030100080E00E94300C60E08BE00E940D0261E0D5
:103020008BE00E94DF0160E082E00E940D0260E020
:1030300083E00E940D0286E59DE090930D01809350
:103040000C01809169008C7F80936900E89A6CE0A4
:1030500070E08EE296E00E94A9066DE070E08BE2DF
:1030600096E00E94A9068FEF9FEF90932105809331
:1030700020058DE693E00E94000D8091A0049091C0
:10308000A104009711F00E94FC1E86E090E00E94CF
:10309000601E8C0188E6F801808384E695E09283C7
:1030A0008183138280E290E0958384831093A1044E
:1030B0000093A0041092A3041092A2041092F104B1
:1030C000109213050E94DE0484E993E09093430478
:1030D0008093420485E993E09093410480934004F7
:1030E00081E0F8018383C8010E940D06811112C09E
:1030F00089EC90E00E9431040E945C0C0AE010E030
:1031000087EB90E00E9431040E945C0C0150110991
:10311000B9F74BC00E94310A90E0880F892F881FB1
:10312000990B892B09F49FC01A82198287E28B833D
:1031300080E28C83ECEAF0E022EB30E08CE090E07F
:103140004491840F911D31962E173F07C9F7875977
:10315000904E67E070E00E94321E811101C087E04E
:103160008D8382E18E8387E08F8382E2888721E0EE
:1031700048E050E0BE016F5F7F4F8091A0049091C6
:10318000A1040E94DC080E94310A9FE09D878F778E
:103190008E8721E042E050E0BE01635F7F4F809167
:1031A000A0049091A1040E94DC0801E714E0EE2441
:1031B000E394F12CF7E1CF2ED12CABE3AA2EB12C66
:1031C000C70101970E94761D90E0F80191838083EA
:1031D000489714F0D182C082C7010E94761D90E00A
:1031E000F80193838283CC9714F0B382A2820C5FA0
:1031F0001F4FF5E0EF0EF11C20E1E216F10401F79C
:1032000082E090E00E94761D8093680483E090E065
:103210000E94761D8093690487E090E00E94761DED
:1032200080936A0488E090E00E94761D80936B048E
:103230008CE090E00E94761D80936C048DE090E01D
:103240000E94761D80936D040EE614E07FE0E72E69
:10325000F12CDD24D394C7010E94761DF8018F3F25
:10326000B9F4D08218C0CE0101960E94550A4A8155
:103270003B812C819D8189818053809348044093B8
:1032800047043093460420934504909344048DCF23
:103290008111E7CF1082FFEFEF1AFF0A0F5F1F4F78
:1032A00022E1E216F104B9F665E0E62EF12C66247F
:1032B0006394712C3AE0A32EB12C4BE0242E312CD8
:1032C00056E0452E512C80915C04882321F080919A
:1032D000570481112FC00E946C0FEBEDF0E0849138
:1032E00020917B00982F990F990F90722F7D922B30
:1032F00090937B008770806480937C0080917A003B
:10330000806480937A0080917A0086FDFCCF809162
:103310007800909179009093500480934F04893EF7
:10332000F3E09F070CF110926504F0925204E092D2
:10333000510440C080915804882319F00E94B70DB1
:10334000CCCF80915904882319F00E94F10DC5CF8C
:1033500080915B04882319F00E942D0EBECF10923D
:103360005C0410925704B9CF9C0129553240233692
:103370003105A8F510925204109251048091510425
:103380009091520420914D0430914E04821793077E
:1033900009F458C090934E0480934D040E94950206
:1033A0006093490470934A0480934B0490934C04B7
:1033B00010926504809151049091520482309105DD
:1033C00009F494C10CF05CC0009709F46FC1019737
:1033D00009F47CC18FE793E00E94000D5AC09C0164
:1033E0002F5531402336310528F4709252046092F3
:1033F0005104C4CF9C01295C31092336310538F4CE
:1034000022E030E03093520420935104B7CF9C0166
:10341000235331092336310538F483E090E090934B
:10342000520480935104AACFC29738F4E4E0F0E04C
:10343000F0935204E0935104A1CFF0925204E09231
:1034400051049CCF0E949502AB01BC0180914904BC
:1034500090914A04A0914B04B0914C0480579E4F28
:10346000AF4FBF4F84179507A607B70708F05BCF8C
:1034700080916504811159CF81E0809365049ACFD2
:103480008430910509F446C10CF43BC1059709F05D
:10349000A1CF8BE00E94B601892B09F471C181E0B4
:1034A00080936604109265040E9495026093610403
:1034B000709362048093630490936404CE01019638
:1034C0000E94550A81E7C82E84E0D82E10E000E063
:1034D0002C81F6018081918128171906E1F4828000
:1034E00093808D818815190409F0DAC2F801E25938
:1034F000FB4F8081882339F080916704811103C0DC
:10350000C8010E945A088D8190E00396881699069A
:1035100011F4109267040F5F1F4FF4E0CF0ED11C1F
:1035200003301105A9F60E949502AB01BC01809100
:103530007D0490917E04A0917F04B0918004885115
:103540009C4FAF4FBF4F84179507A607B70708F0EA
:10355000A5C00E94950260937D0470937E048093C1
:103560007F049093800489EA93E00E94000D6EEB43
:1035700073E084E195E00E94540D609171047091B4
:10358000720484E195E00E94AE0C6AE072E084E18E
:1035900095E00E94540D80917304909174040E94F0
:1035A000E80C68EC73E084E195E00E94540D809192
:1035B0006E0490E00E94E80C61ED73E084E195E018
:1035C0000E94540D80916804909169040E94E80C57
:1035D0006CED73E084E195E00E94540D60917504F8
:1035E0007091760484E195E00E94AE0C6AE072E08E
:1035F00084E195E00E94540D8091770490917804C5
:103600000E94E80C68EC73E084E195E00E94540DA0
:1036100080916F0490E00E94E80C61ED73E084E11A
:1036200095E00E94540D80916A0490916B040E9471
:10363000E80C66EE73E084E195E00E94540D609121
:10364000790470917A0484E195E00E94AE0C6AE0FE
:1036500072E084E195E00E94540D80917B0490918A
:103660007C040E94E80C68EC73E084E195E00E9421
:10367000540D8091700490E00E94E80C61ED73E0BD
:1036800084E195E00E94540D80916C0490916D044A
:103690000E94E80C0E945C0C0E945C0C80E090E0B0
:1036A000892B09F410CE0E94000001CE80915D04A8
:1036B00090915E04833091051CF40E943A08E9CE93
:1036C000049709F0E6CE0E94F10DE3CE80915704F5
:1036D000882349F0809158048111F5CF80915904D5
:1036E000882309F4D6CE0E942708D3CE80915704B0
:1036F000882319F00E940F0DCCCE80E00E948F0726
:10370000C8CE80915704882319F00E94310DC1CE94
:1037100081E0F4CF80915704882329F080915904E7
:1037200081110E94B70D80915D0490915E048330F9
:1037300091051CF28B3091050CF4ABCEB5010E94C3
:10374000461E843009F4A5CE009709F4BCCF813021
:10375000910519F40E94D40F9CCE8230910519F482
:103760000E949A0D96CE8330910531F480915504D4
:1037700090E00E945A088DCE049709F08ACEB3CF0C
:1037800080916604882379F0109266040E94950265
:103790006093610470936204809363049093640463
:1037A000109265048BCE0E949502AB01BC01809102
:1037B000610490916204A0916304B0916404805705
:1037C0009E4FAF4FBF4F84179507A607B70740F727
:1037D00080916504811172CE80915C04882309F484
:1037E0003FC080915B048823F1F010925B0481E07C
:1037F00080935A0460ED77E080E090E00E946302DD
:1038000080915D0490915E0420915F04309160048A
:103810002817390721F09093600480935F0481E0BA
:10382000809365044BCE80915A04882331F0109226
:103830005A0481E080935904DDCF80915904882394
:1038400031F01092590481E080935804D3CF8091D5
:103850005804882379F21092580410925C04CACF5D
:1038600080915704882309F49AC0809158048823D2
:1038700009F447C0109258041092570480915504DF
:1038800090E00097E9F46981188A1F86CE010F96AF
:103890000E9474106B81788A6F86CE010F960E9409
:1038A000741080915704811108C080915604815092
:1038B000990B90935E0480935D040E942708A0CF2B
:1038C0008130910579F460917504FA82E982CE0124
:1038D00001960E947410609177045A824982CE0149
:1038E0000196DDCF029709F760917904BA82A98227
:1038F000CE0101960E94741060917B043A82298265
:10390000EECF80915904882361F01092590481E030
:103910008093580464EF71E080E090E00E946302BD
:10392000C0CF809154048823D9F01092540410928F
:10393000570480915504E82FF0E0EE0FFF1FE8597F
:10394000FB4F208131813E872D87F5E08F9FC0019D
:103950001124BE01635F7F4F02960E948D10A1CF9C
:1039600080915304882309F4A8CF10925304109235
:1039700057042091550430E0C9010F9622593B4F5E
:10398000F9012081222341F02FEF30E03A8329838F
:10399000BE016F5F7F4FE1CF1A821982F9CFE091AC
:1039A0005D04F0915E04E332F10508F029CFE552A1
:1039B000F34E0C945A1EFE1CFE1CFE1C011D001C26
:1039C000001C001C001C001C001C091D111D1D1DDD
:1039D000291D331D001C001C001C001C001C3C1D6C
:1039E0003F1D421D451D5D1C001C001C001C001CD1
:1039F000001C3C1D3F1D421D4A1D5D1C0E943A08D3
:103A0000FFCE81E080935C04809357040E942D0ECA
:103A1000F7CE81E080935604109255040E94F10D78
:103A2000EFCE81E0809356041092550480935704A2
:103A3000809354040E94D40FE3CE81E08093560417
:103A40001092550480935704809353040E949A0D5A
:103A5000D7CE81E0809356041092550490E080E028
:103A60000E945A08CDCE1092550410925E04109216
:103A70005D0410925604C4CE0E944C08CFCF0E9421
:103A80004C08D8CF0E944C08E1CF0E944C0883E03C
:103A900090E0E6CF0E944C088091550490E0E0CF82
:103AA0001092670430CDCF93DF93CDEDD5E026970C
:103AB000CE010E94450C85E0C539D807C1F7C7E0A3
:103AC000D6E02697CE010E94450C85E0CD3DD80773
:103AD000C1F7CBE2D6E02697CE010E94450C86E0E6
:103AE000C730D807C1F7DF91CF910895F999FECF7C
:103AF00092BD81BDF89A992780B50895262FF9992E
:103B0000FECF1FBA92BD81BD20BD0FB6F894FA9AC0
:103B1000F99A0FBE01960895052E97FB1EF40094A6
:103B20000E94A31D57FD07D00E94F51D07FC03D07E
:103B30004EF40C94A31D50954095309521953F4F20
:103B40004F4F5F4F089590958095709561957F4F89
:103B50008F4F9F4F08950E94171EA59F900DB49FF1
:103B6000900DA49F800D911D11240895B7FF0C9412
:103B7000AB1D0E94AB1D821B930B08952F923F92A9
:103B80004F925F926F927F928F929F92AF92BF926D
:103B9000CF92DF92EF92FF920F931F93CF93DF9319
:103BA000CDB7DEB7CA1BDB0B0FB6F894DEBF0FBE76
:103BB000CDBF09942A88398848885F846E847D84C3
:103BC0008C849B84AA84B984C884DF80EE80FD80C5
:103BD0000C811B81AA81B981CE0FD11D0FB6F8943B
:103BE000DEBF0FBECDBFED010895A1E21A2EAA1BC4
:103BF000BB1BFD010DC0AA1FBB1FEE1FFF1FA2179D
:103C0000B307E407F50720F0A21BB30BE40BF50B99
:103C1000661F771F881F991F1A9469F76095709522
:103C2000809590959B01AC01BD01CF010895A29FA5
:103C3000B001B39FC001A39F700D811D1124911D80
:103C4000B29F700D811D1124911D0895991B79E07B
:103C500004C0991F961708F0961B881F7A95C9F71C
:103C600080950895AA1BBB1B51E107C0AA1FBB1F6B
:103C7000A617B70710F0A61BB70B881F991F5A95F8
:103C8000A9F780959095BC01CD01089597FB072E6B
:103C900016F4009407D077FD09D00E94321E07FC6D
:103CA00005D03EF4909581959F4F0895709561954C
:103CB0007F4F0895EE0FFF1F0590F491E02D0994BA
:103CC0000F931F93CF93DF938230910510F482E01E
:103CD00090E0E0914B06F0914C0630E020E0B0E03F
:103CE000A0E0309799F42115310509F44AC0281B4A
:103CF000390B24303105D8F58A819B816115710516
:103D000089F1FB0193838283FE0111C040815181BF
:103D10000281138148175907E0F04817590799F4B1
:103D2000109761F012960C93129713961C9332968B
:103D3000CF01DF91CF911F910F91089500934B0612
:103D400010934C06F4CF2115310551F0421753075B
:103D500038F0A901DB019A01BD01DF01F801C1CFF3
:103D6000EF01F9CF90934C0680934B06CDCFFE0127
:103D7000E20FF31F819391932250310939832883F5
:103D8000D7CF2091490630914A06232B41F4209148
:103D900018013091190130934A0620934906209169
:103DA0001601309117012115310541F42DB73EB7A9
:103DB00040911A0150911B01241B350BE0914906DB
:103DC000F0914A06E217F307A0F42E1B3F0B2817C9
:103DD000390778F0AC014E5F5F4F2417350748F084
:103DE0004E0F5F1F50934A0640934906819391936B
:103DF0009FCFF0E0E0E09CCFCF93DF930097E9F016
:103E0000FC01329713821282A0914B06B0914C06AE
:103E1000ED0130E020E01097A1F420813181820F84
:103E2000931F2091490630914A062817390709F057
:103E300061C0F0934A06E0934906DF91CF9108955F
:103E4000EA01CE17DF07E8F54A815B819E01411543
:103E50005105B1F7E901FB83EA8349915991C40FF8
:103E6000D51FEC17FD0761F4808191810296840FC4
:103E7000951FE90199838883828193819B838A833B
:103E8000F0E0E0E012968D919C9113970097B9F5C0
:103E90002D913C911197CD010296820F931F209195
:103EA000490630914A062817390739F6309751F5F7
:103EB00010924C0610924B06B0934A06A093490606
:103EC000BCCFD383C28340815181840F951FC81713
:103ED000D90761F44E5F5F4F88819981480F591F60
:103EE000518340838A819B8193838283211531058D
:103EF00009F0B0CFF0934C06E0934B069ECFFD0146
:103F0000DC01C0CF13821282D7CFB0E0A0E0EBE893
:103F1000FFE10C94C01D8C01009751F4CB010E946D
:103F2000601E8C01C801CDB7DEB7E0E10C94DC1D4A
:103F3000FC01E60FF71F9C0122503109E217F3073D
:103F400008F49DC0D901CD91DC911197C617D70710
:103F500098F0C530D10530F3CE0104978617970746
:103F600008F3C61BD70B2297C193D1936D937C9313
:103F7000CF010E94FC1ED6CF5B01AC1ABD0A4C01DA
:103F80008C0E9D1EA0914B06B0914C06512C412CDD
:103F9000F12CE12C109731F58091490690914A0659
:103FA0008815990509F05CC04616570608F058C0F8
:103FB0008091160190911701009741F48DB79EB73B
:103FC00040911A0150911B01841B950BE817F907CA
:103FD00008F055C0F0934A06E0934906F901718351
:103FE0006083A0CF8D919C91119712966C9012973F
:103FF00013967C901397A815B90559F56C0142E00A
:10400000C40ED11CCA14DB0420F1AC014A195B09AF
:10401000DA011296159780F0628273825183408391
:10402000D9016D937C93E114F10471F0D7011396DB
:10403000FC93EE93129776CF22968C0F9D1FF90179
:1040400091838083F301EFCFF0934C06E0934B060E
:1040500069CF4816590608F42C017D01D3019ACF87
:10406000CB010E94601E7C01009749F0AE01B801AF
:104070000E944220C8010E94FC1E870153CF10E01D
:1040800000E050CFFB01DC0102C001900D924150D5
:104090005040D8F70895FB01DC0101900D920020FB
:1040A000E1F7089510E0C0EFD0E004C0FE010E94E7
:0E40B0005A1E2196C13FD107C9F7F894FFCFE1
:1040BE00FFFFFFFF00E1000000000000A102A102CF
:1040CE00A102A102A10200004D06800000030A0E0B
:1040DE0014181E2200C18081000000000000001B89
:1040EE0004960357044C049D045B047904000000FD
:1040FE00005D0730078C070607290716070707001C
:10410E000000003F0C67038C0705070D0A0052657F
:10411E007374616E646F0052657374616E646F3A8E
:10412E0020200053756D616E646F0053756D616E66
:10413E00646F3A202000456E636F64657200506FA5
:10414E00736963696F6E2064656C20656E636F645E
:10415E0065723A20005375626D656E753A202000C7
:10416E002D2D2D2D2D2D2D2D2D2D2D2D2D2D2D2D71
:10417E002D2D2D2D2D2D2D2D2D2D2D2D2D2D2D2D61
:10418E002D2D2D2D2D2D00484142494C4954415283
:10419E003A00414A555354414E444F204D494E55D5
:1041AE00544F203A00686F72613A00414A55535499
:1041BE00414E444F20484F5241203A00414A5553F8
:1041CE0054414E444F2041C3914F203A00434F4D2E
:1041DE00494441203100434F4D4944412032004370
:1041EE004F4D494441203300414A555354415220CA
:1041FE0052454C4F4A00414A555354415220484F64
:10420E00524100414A55535441522043414E544964
:10421E0044414400484142494C49544152200054C3
:10422E0045535400564F4C56455200414A5553542F
:10423E0041522043414E544944414420003E0059CE
:10424E00590064004D002020202020202020202016
:10425E002020202020202020200043414E5449447D
:10426E0041443A0073656C65637400697A717569CF
:10427E0065726461006162616A6F00617272696287
:10428E00610064657265636861006E61646100441B
:10429E006F6D696E676F004C756E6573004D617260
:1042AE00746573004D696572636F6C6573004A7552
:1042BE006576657300566965726E6573005361624B
:1042CE0061646F00456E65726F004665627265725D
:1042DE006F004D61727A6F00416272696C004D61C0
:1042EE00796F004A756E696F004A756C696F00418F
:1042FE00676F73746F005365707469656D62726574
:10430E00004F637475627265004E6F7669656D62FB
:10431E0072650044696369656D6272650045737408
:10432E006F7920656E20656C207365747570004E14
:10433E006F2076616C65206E696E67756E612064A4
:10434E0065206C6F732076616C6F72657320616E81
:10435E00746572696F726573004441544F53204403
:10436E0045204C415320434F4D4944415300636F08
:10437E006D69646120312000656E61626C653A2062
:10438E000063616E74696461643A2000636F6D69E5
:10439E00646120322000636F6D69646120332000F8
:00000001FF
